:03000000020F7C70
:0C0F7C00787FE4F6D8FD75816D020FC38C
:10130600E4F52BF52C75FCE075EF01E5FC54F04493
:1013160002F5FC43FC10E5FC30E3FBAFFEEFADFD50
:08132600F52BEDF52CAE2BFFB9
:01132E00229C
:041507001213062293
:100BD70090011A12047E00000000E4F514E4F513F6
:100BE700121507E51325E02436F8A60608A607051B
:100BF70013C3E5136480949440E67B007A0079364A
:100C07007D147C00120ADAE5432545FFE5423544A9
:100C1700FEE5472FFFE5463EFEE5492FFFE5483E47
:100C2700FEE54B2FFFE54A3EFEE54D2FFFE54C3E27
:100C3700FEE54F2FFFE54E3EFEE5512FFFE5503E07
:100C4700FEEF7803CEC313CE13D8F9F5168E1590A1
:100C5700011AE0F8A3E0F9A3E0FAA3E0FBE4FCFD46
:100C6700EB2516FFEA3EFEED39FDEC38FC90011A44
:100C77001204720514C3E514648094905003020BA8
:100C8700E490011AE0FCA3E0FDA3E0FEA3E0FF78F7
:080C97000412045E8E158F1695
:010C9F002232
:10137F00E4F529F52A75FCE0E5FC54F04401F5FC91
:10138F0043FC10E5FC30E3FBAFFEEFADFDF529EDBF
:05139F00F52AAE29FF54
:0113A4002226
:100CA00090011A12047E00000000E4F526E4F52508
:100CB00012137FE52525E02436F8A60608A60705C9
:100CC00025C3E5256480949440E67B007A0079365C
:100CD0007D147C00120ADAE5432545FFE5423544E0
:100CE000FEE5472FFFE5463EFEE5492FFFE5483E7E
:100CF000FEE54B2FFFE54A3EFEE54D2FFFE54C3E5E
:100D0000FEE54F2FFFE54E3EFEE5512FFFE5503E3D
:100D1000FEEF7803CEC313CE13D8F9F5288E2790B3
:100D2000011AE0F8A3E0F9A3E0FAA3E0FBE4FCFD7C
:100D3000EB2528FFEA3EFEED39FDEC38FC90011A68
:100D40001204720526C3E526648094905003020CB9
:100D5000AD90011AE0FCA3E0FDA3E0FEA3E0FF7864
:080D60000412045E8E278F28A7
:010D68002268
:10141400E4F52FF53075FCE053FCF043FC10E5FCDB
:1014240030E3FBAFFEEFADFDF52FEDF530AE2FFF52
:011434002295
:100D69009001A212047E00000000E4F52CE4F52BAA
:100D7900121414E52B25E02436F8A60608A6070563
:100D89002BC3E52B6480949440E67B007A00793686
:100D99007D147C00120ADAE5432545FFE542354416
:100DA900FEE5472FFFE5463EFEE5492FFFE5483EB4
:100DB900FEE54B2FFFE54A3EFEE54D2FFFE54C3E94
:100DC900FEE54F2FFFE54E3EFEE5512FFFE5503E74
:100DD900FEEF7803CEC313CE13D8F9F52E8E2D90DE
:100DE90001A2E0F8A3E0F9A3E0FAA3E0FBE4FCFD2B
:100DF900EB252EFFEA3EFEED39FDEC38FC9001A211
:100E0900120472052CC3E52C648094905003020DE2
:100E1900769001A2E0FCA3E0FDA3E0FEA3E0FF7849
:080E29000412045E8E2D8F2ED1
:010E3100229E
:1014DC00AD07AC06EC540FF5EEEDF5ED43EE102236
:10100800E4F56AF56975688075673F7FD07E0712D9
:1010180014DCE4F524120CA0E52425E02410F8A63D
:101028000608A6077F647E001213570524E524C32B
:10103800940A40E17B007A0079107D0A7C00120A4C
:10104800DAE5172519FFE5163518FEE51B2FFFE52C
:101058001A3EFEE51D2FFFE51C3EFEEF7802CEC3CB
:1010680013CE13D8F9F50F8E0EC374D0950FF56C07
:061078007407950EF56BF4
:01107E00224F
:080ADA009001A6ECF0A3EDF081
:100AE200E4F535F533F5349001A7E024FFFF9001DA
:100AF200A6E034FFFEC3E5349FE5339E4003020BBC
:100B0200D6E4F535F531F532C39001A7E09534FF0F
:100B12009001A6E09533CF24FFCF34FFFEC3E53228
:100B22009FE5319E4003020BC4E5322401FFE43508
:100B320031FEEF25E0FFEE338F82F5831203D5FD00
:100B4200ACF0E53225E0FFE531338F82F583120305
:100B5200D5D39DE5F09C405CE5322401FFE43531BC
:100B6200FEEF25E0FFEE338F82F5831203D5F530D9
:100B720085F02FE53225E0FFE531338F82F58312D0
:100B820003D5FDE5322401FFE43531FEEF25E0FF18
:100B9200EE338F82F583E5F08DF012040DE53225F8
:100BA200E0FFE531338F82F583E52F8530F01204C3
:100BB2000D7535010532E5326003020B0A0531027B
:100BC2000B0AE535600E0534E5346003020AE905D7
:040BD20033020AE9F7
:010BD60022FC
:1014B60075FB8275E910E4F5EB75F91175E87D7534
:0314C60080102271
:04150B00E4F5A6223B
:06150100439A01D2AF2263
:04150F0075A7042296
:031513008FB12273
:0414F7008F828E83CF
:0514FB00E493F530FF51
:0115000022C8
:0412DC00AD07AC06A8
:1012E000E4F52B1214F78F2CED2401FFE43EFE12DF
:1012F00014F78F2DE52CFE7C00E4252DF52FEC3E18
:05130000F52EFEAF2FE9
:0113050022C5
:04146D00AB07AA0619
:10147100E4F51DEAF594EBF593AF058F95759601AB
:04148100051D151D13
:011485002244
:0A143500AD07AC06EC54034F701233
:10143F00F51DECF594EDF593E4F595759602051D04
:02144F00151D69
:011451002278
:100EEA0000000000000000000000000000000000F8
:100EFA0000000000000000000000000000000000E8
:100F0A0000000000000000000000000000000000D7
:100F1A0000000000000000000000000000000000C7
:100F2A0000000000000000000000000000000000B7
:100F3A0000000000000000000000000000000000A7
:100F4A000000000000000000000000000000000097
:100F5A000000000000000000000000000000000087
:100F6A0000000000435331353231585A2E30302EAA
:020F7A00303411
:101452004A0000FFFFFFFFFFFFFFFFFFFF4A000AF6
:0A146200FFFFFFFFFFFFFFFFFFFF8A
:10085D00E4F50EE565640170030209CE121507E596
:10086D000E25E0240FF8A60608A607050EE50EC313
:10087D00940A40DF7B007A00790F7D0A7C00120A12
:10088D00DAE518251AFFE5173519FEE51C2FFFE5EA
:10089D001B3EFEE51E2FFFE51D3EFEEF7802CEC38B
:1008AD0013CE13D8F9F5248E23900000E0FEA3E0BB
:1008BD00FFF47002EEF46037E5242FFFE5233EFED2
:1008CD00900003E02FFF900002E03EFE900005E057
:1008DD002FFF900004E03EFE900007E02FFF9000F8
:1008ED0006E03EFE7C007D051203808E238F24C31F
:1008FD00E52494E4E523940C5041E52494DCE523B0
:10090D0094054037900002E0FFA3E0900000CFF087
:10091D00A3EFF0900004E0FFA3E0900002CFF0A35E
:10092D00EFF0900006E0FFA3E0900004CFF0A3EFFE
:10093D00F0A3E523F0A3E524F0800874FF900000F8
:10094D00F0A3F0C3E523940D5041E5249400E52375
:10095D0094054037E52425E0FFE52333FEE42FFF22
:10096D00EE3416FE1212DC8E258F26AC25AD26EC4C
:10097D00120191AB6AAA69A968A8671200861201D3
:10098D00CAE56C2FF528E56B3EF527C3E5289402E3
:10099D00E527648094805008752700752802801320
:1009AD00D3E52894FFE5276480948F400675270FC3
:1009BD007528FFAF28AE271214DC7FC87E001213F6
:0109CD0057D2
:0109CE002206
:1005CF00781A7C017D017BFF7A0E79EA7E007F84A9
:1005DF0012031BE4F50EE5656401700302085C125B
:1005EF001507E50E25E0240FF8A60608A607050E49
:1005FF00E50EC3940840DF7B007A00790F7D087CFD
:10060F0000120ADAE5142516FFE5133515FEE51875
:10061F002FFFE5173EFEE51A2FFFE5193EFEEF7897
:10062F0002CEC313CE13D8F9F5248E23D394FFE54E
:10063F00236480948F400675230F7524FFD3E52420
:10064F009400E523648094805005E4F523F524E4B9
:10065F00F50EE5656401700302085C120D69E50E85
:10066F0025E0241AF582E43401F583EEF0A3EFF0D0
:10067F00050EE50EC3942040D97B017A01791A7DCE
:10068F00207C00120ADA90019E12047E0000000006
:10069F00750E1090019EE0F8A3E0F9A3E0FAA3E035
:1006AF00FBE50E25E0241AF582E43401F583E0FE24
:1006BF00A3E0FFE4FCFDEB2FFFEA3EFEED39FDEC7E
:1006CF0038FC90019E120472050EE50EB414C4900E
:1006DF00019EE0FCA3E0FDA3E0FEA3E0FFE47B04AA
:1006EF00FAF9F81211EF90019E120472E47FFF7E67
:1006FF000FFDFC90019EE0F8A3E0F9A3E0FAA3E060
:10070F00FBD3120448400A90019E12047E00000F92
:10071F00FF90019EA3A3E0FEA3E02400F52AEE3490
:10072F00F8F52990000AE0FEA3E0FFF47002EEF462
:10073F006037E5242FFFE5233EFE90000DE02FFFED
:10074F0090000CE03EFE90000FE02FFF90000EE0B7
:10075F003EFE900011E02FFF900010E03EFE7C0067
:10076F007D051203808E238F24C3E52494E4E523B3
:10077F006480948C5043E52494DCE5236480948555
:10078F00403790000CE0FFA3E090000ACFF0A3EFFA
:10079F00F090000EE0FFA3E090000CCFF0A3EFF07D
:1007AF00900010E0FFA3E090000ECFF0A3EFF0A3B6
:1007BF00E523F0A3E524F0800874FF90000AF0A36E
:1007CF00F0C3E5236480948D5023E5249400E52342
:1007DF00648094854017E52425E0FFE52333FEE48C
:1007EF002FFFEE3416FE1212DC8E258F26E52625FE
:1007FF002AF528E5253529F527FCAD28120191ABFF
:10080F006AAA69A968A8671200861201CAE56C2F47
:10081F00F528E56B3EF527C3E5289402E5276480AC
:10082F00948050087527007528028013D3E528940B
:10083F00FFE5276480948F400675270F7528FFAF5B
:0D084F0028AE271214DC7FF47E011213572F
:01085C002279
:10132F00756D01120BD78E0F8F10120CA08E118FAF
:10133F0012E50FFF900019EFF0A3E510F0E511FF94
:07134F00A3EFF0A3E512F08B
:011356002274
:10123300900017E0F50FE4F511F51274192512F576
:1012430082E43400F583E0F510E50FFEE42512CDCA
:10125300E5113420CD2400FFED3EFEAD1012146DD8
:0F1263000512E51270020511C3E511940140CC8C
:011272002259
:10115500900017E0F512E4F50FF510E512FEE42412
:1011650000FFEE3420FEE5102FFFE50F3EFE1214C2
:10117500F78F1174192510F582E43400F583E51114
:10118500F00510E5107002050FC3E50F940140CB83
:10119500E4900016F07B017A0079147D067C01024B
:0211A50011A790
:1014C90090001A74FFF07F007E401214F790001B01
:0314D900EFF0220F
:1013A500E4F50FE4250FFFE43448FE1214F7741931
:1013B500250FF582E43400F583EFF0050FE50FC343
:0413C500940740DF6A
:0113C9002201
:1013CA00E4F50FE4250FFFE43444FE1214F7741910
:1013DA00250FF582E43400F583EFF0050FE50FC31E
:0413EA00940C40DF40
:0113EE0022DC
:1012B0007F007E44121435E4F50FE4250FFFE4347B
:1012C00044FE7419250FF582E43400F583E0FD1225
:0B12D000146D050FE50FC3940C40DF08
:0112DB0022F0
:1013EF00E4F50FE4250FFFE4344CFE1214F77419E3
:1013FF00250FF582E43400F583EFF0050FE50FC3F9
:04140F00940740DF1F
:0114130022B6
:100E3200E56564016003020ED9900015E01204AF6B
:100E42000E82060E8C070E87080E91100E73110E7D
:100E520078120E64130E69140E6E150E7D190000C1
:100E62000E9912132F802B121233802612115580E5
:100E720029121273801C12000380171214C98012E7
:100E82001213A5800D1213EF80081213CA800312E9
:100E920012B0750E018003750E02E50EB40113E463
:100EA200F50E900016F07B017A0079147D067C0124
:100EB2008022E50EB40220E4F50E900014747EF058
:100EC20090011974AAF09000167401F0FB7A00796F
:100ED200147D06FC1211A7E4F5657E017F06FD7BF9
:080EE200017A0079140204D525
:10127300C2AFE4F50FE50F25E025E0FEE42400FF0F
:10128300EE3420FE1214357F017E00121357050F32
:10129300E50FC3940840DE7F007E401214357F01C2
:0C12A3007E00121357D2AFE4900016F04A
:0112AF00221C
:1000030090001BE0701FFF7E401214357F0A7E00B4
:10001300121357E4FDFF7E4012146DE4900016F0B6
:10002300F563F5642290001BE0B4FF227F007E405D
:100033001214357F0A7E001213577DFF7F007E4026
:1000430012146DE4900016F0F5637564FF229000BE
:100053001BE0B401227F007E401214357F0A7E002C
:100063001213577D017F007E4012146DE490001639
:0E007300F0F563756401229000167401F0220E
:1010F000780E7C007D007BFF7A0F796E7E007F0783
:1011000012031B78157C007D007BFF7A0F79757EBA
:10111000007F0712031B7F007E481214357F007E7C
:101120004C121435E4F51CE4251CFFE43448FE742D
:101130000E251CF8E6FD12146DE4251CFFE4344C6A
:10114000FE7415251CF8E6FD12146D051CE51CC384
:04115000940740D3ED
:011154002278
:0300830002107FE9
:10107F00C0E0C083C082C0D075D000C001C002C024
:10108F0003E59B30E04C539BFEC3E5609406E55FA0
:10109F009401503E7B0174142560F97400355FFA9A
:1010AF00E59C12036E900014E0B47E20E560B40559
:1010BF0011E55FB4010C900119E0B4AA1575650133
:1010CF00800A0560E560700A055F8006755F007530
:1010DF006000D003D002D001D0D0D082D083D0E036
:0110EF0032CE
:1009CF0012150B7FE87E0312135712150F1214B670
:1009DF007F0212151312149E7F007E401214F775BA
:1009EF0063008F641210F01215017FD07E0712136F
:1009FF0057121008120BD78E088F09E50925E0FF53
:100A0F00E50833FEE42FFFEE3456FE1212DC8E6142
:100A1F008F62E4F55EF55FF560F565F56D7FD07E6D
:100A2F00071214DCE565B40103120E32E564456369
:100A3F00700512085D800BE5646401456370031255
:100A4F0005CFE564F4456370DBF508F509F50AF5A4
:100A5F000B120BD78E088F09120CA08E0A8F0BC3A7
:100A6F00E50B94A0E50A940F50BAE50B94C8E50A7C
:100A7F00940040B0E56DB401ABE50925E0FFE50852
:100A8F0033FEE42FFFEE3416FE1212DC8E0C8F0DA8
:100A9F00E50DF47003E50CF4708AE50925E0FFE538
:100AAF000833FEE42FFFEE3416FEE50AFD12146D37
:100ABF00E50925E0FFE50833FEEF2401FFEE3416CC
:0B0ACF00FEAD0BE50B12146D020A33A4
:10148600E4F52DE52DC39F500EE4F52E052EE52E31
:07149600B432F9052D80ECD2
:01149D00222C
:04135700AD07AC062C
:10135B00E4F52BF52CC3E52C9DE52B9C5015E56591
:10136B006401600F7F0A121486052CE52C70E605CC
:03137B002B80E2E2
:01137E00224C
:1011A70090011AEBF0A3EAF0A3E9F0A3ECF0A3EDAA
:0111B700F047
:1011B800E4F513F514D390011EE0951490011DE099
:1011C8009513402290011AE0FBA3E0FAA3E0F98509
:1011D8001482851383120341FF1214EC0514E514DD
:0611E80070D3051380CF57
:0111EE0022DE
:0B14EC008F9CE59B30E1FB539BFD2231
:10149E00750E03750FCA759B90E50EF5BBE50FF53E
:0814AE009D7FC87E0002135768
:10008600EC4D6011E8497017ED33EC3304600DE474
:10009600FCFFFEFD22E933E8330470F80202361253
:1000A600020158046009E4CC248150062850090254
:1000B600024028400302023DC0E0EB4A7044B9808A
:1000C60006D0E0FB02022CEF4E701CBD8008EBFF51
:1000D600EAFEE9FD80EBE98DF0A4FEE5F002016F92
:1000E600E9CDF9EAFEEBFFEF89F0A4FCE5F0CE8955
:1000F600F0A42EFFE435F0CD89F0A42DFEE435F012
:100106008067EF4E7005BD80D780C3EF8BF0A4AC3F
:10011600F0EE8BF0A42CFCE435F0F8EF8AF0A42C7A
:10012600E5F038FCE433CB8DF0A42CFCE5F03BF88D
:10013600EE8AF0A42CFCE5F038F8E433CF89F0A47D
:100146002CFCE5F038CF3400CE89F0A42FFFE5F083
:100156003EFEE433C98DF0A42EFEE5F039CD8AF0DB
:10016600A42FFFE5F03EFEE43DFD33D0E0FB500753
:100176000BBB000F020240EC2CFCEF33FFEE33FE0C
:06018600ED33FD0202183A
:10018C0075F020800E75F010800575F0087D007EEE
:10019C00007F003392D530D50312043AEC33401073
:1001AC00EF33FFEE33FEED33FDEC33FCD5F0ED22F7
:0E01BC00E5F0247EA2D513CC92E7CDCEFF2233
:1001CA00EDD2E7CD33EC3392D524814006E4FFFE2D
:1001DA00FDFC22FCE4CFCECDCC24E0501174FF808C
:1001EA00EDC3CC13CCCD13CDCE13CECF13CF047029
:0701FA00F030D5DE02043AEB
:10020100E9D2E7C933E833F892D5EDD2E7CD33EC43
:0702110033FC5002B2D522BC
:10021800EC30E7100FBF000C0EBE00080DBD000447
:100228000BEB6014A2D5EB13FCED92E7FD2274FFF3
:10023800FCFDFEFF22E480F8A2D574FF13FC7D804C
:03024800E480EF60
:100F88000209CFE493A3F8E493A34003F68001F2A7
:100F980008DFF48029E493A3F85407240CC8C3336A
:100FA800C4540F4420C8834004F456800146F6DF39
:100FB800E4800B0102040810204080901452E47E63
:100FC800019360BCA3FF543F30E509541FFEE4932E
:100FD800A360010ECF54C025E060A840B8E493A3F5
:100FE800FAE493A3F8E493A3C8C582C8CAC583CA20
:100FF800F0A3C8C582C8CAC583CADFE9DEE780BED8
:01146C00007F
:10024B00E709F608DFFA8046E709F208DFFA803E95
:10025B0088828C83E709F0A3DFFA8032E309F60882
:10026B00DFFA8078E309F208DFFA807088828C83EA
:10027B00E309F0A3DFFA806489828A83E0A3F6089E
:10028B00DFFA805889828A83E0A3F208DFFA804C78
:10029B0080D280FA80C680D4806980F2803380104F
:1002AB0080A680EA809A80A880DA80E280CA8033B8
:1002BB0089828A83ECFAE493A3C8C582C8CCC58330
:1002CB00CCF0A3C8C582C8CCC583CCDFE9DEE78000
:1002DB000D89828A83E493A3F608DFF9ECFAA9F07F
:1002EB00EDFB2289828A83ECFAE0A3C8C582C8CCD5
:1002FB00C583CCF0A3C8C582C8CCC583CCDFEADEEE
:10030B00E880DB89828A83E493A3F208DFF980CC4F
:10031B0088F0EF60010E4E60C388F0ED2402B40448
:10032B000050B9F582EB2402B4040050AF232345EF
:06033B00822390029B7377
:10034100BB010CE58229F582E5833AF583E0225071
:1003510006E92582F8E622BBFE06E92582F8E222BB
:0D036100E58229F582E5833AF583E49322D5
:10036E00BB010689828A83F0225002F722BBFE016E
:02037E00F32268
:10038000BC000BBE0029EF8DF084FFADF022E4CC61
:10039000F875F008EF2FFFEE33FEEC33FCEE9DEC2A
:1003A000984005FCEE9DFE0FD5F0E9E4CEFD22ED70
:1003B000F8F5F0EE8420D21CFEADF075F008EF2FBA
:1003C000FFED33FD4007985006D5F0F222C398FDAB
:0503D0000FD5F0EA2248
:1003D500BB0110E58229F582E5833AF583E0F5F066
:1003E500A3E0225009E92582F886F008E622BBFE43
:1003F5000AE92582F8E2F5F008E222E5832AF58389
:08040500E993F5F0A3E993224D
:10040D00F8BB0111E58229F582E5833AF583E8F021
:10041D00E5F0A3F0225009E92582C8F608A6F022DE
:0D042D00BBFE09E92582C8F2E5F008F222C5
:1011EF00C2D5E830E70FB2D5E4C39BFBE49AFAE42B
:1011FF0099F9E498F8EC30E717B2D51212251205D9
:10120F003DE4C39BFBE49AFAE499F9E498F8800370
:10121F0012053D30D50DE4C39FFFE49EFEE49DFD16
:04122F00E49CFC221D
:0E043A00C3E49FFFE49EFEE49DFDE49CFC22D3
:10044800EB9FF5F0EA9E42F0E99D42F0EC6480C82B
:0604580064809845F022CB
:10045E00E86010ECA2E713FCED13FDEE13FEEF13B4
:04046E00FFD8F022A1
:0C047200ECF0A3EDF0A3EEF0A3EFF022FD
:10047E00A8828583F0D083D082120495120495123F
:10048E000495120495E473E493A3C583C5F0C58364
:10049E00C8C582C8F0A3C583C5F0C583C8C582C8C8
:0104AE00222B
:1004AF00D083D082F8E4937012740193700DA3A3DC
:1004BF0093F8740193F5828883E4737402936860F0
:0604CF00EFA3A3A380DFF0
:1004D500EF4E6012EF60010EEDBB010B89828A833E
:1004E500F0A3DFFCDEFA2289F05007F709DFFCA94B
:0C04F500F022BBFEFCF309DFFCA9F022A2
:1005010075F008758200EF2FFFEE33FECD33CDCCB1
:1005110033CCC58233C5829BED9AEC99E582984034
:100521000CF582EE9BFEED9AFDEC99FC0FD5F0D611
:10053100E4CEFBE4CDFAE4CCF9A88222B800C1B93B
:100541000059BA002DEC8BF084CFCECDFCE5F0CB79
:10055100F97818EF2FFFEE33FEED33FDEC33FCEBB2
:1005610033FB10D703994004EB99FB0FD8E5E4F96D
:10057100FA227818EF2FFFEE33FEED33FDEC33FC5A
:10058100C933C910D7059BE99A4007EC9BFCE99A4E
:10059100F90FD8E0E4C9FAE4CCFB2275F010EF2F93
:1005A100FFEE33FEED33FDCC33CCC833C810D70793
:1005B1009BEC9AE899400AED9BFDEC9AFCE899F8CE
:0E05C1000FD5F0DAE4CDFBE4CCFAE4C8F92261
:00000001FF
