:03000000020DB03E
:0C0DB000787FE4F6D8FD758165020DF730
:1011BB00E4F54FF55075EF0175FC20E5FC54F04458
:1011CB0002F5FC43FC10E5FC30E3FBAFFEEFADFD9D
:0811DB00F54FEDF550AE4FFF9A
:0111E30022E9
:0413BC001211BB222D
:100AD40090011A12047E00000000E4F538E4F537B2
:100AE4001213BCE53725E02408F8A60608A6070576
:100AF40037C3E5376480949440E67B007A00790834
:100B04007D147C001209D7E5152517FFE514351669
:100B1400FEE5192FFFE5183EFEE51B2FFFE51A3E03
:100B2400FEE51D2FFFE51C3EFEE51F2FFFE51E3EE3
:100B3400FEE5212FFFE5203EFEE5232FFFE5223EC3
:100B4400FEEF7803CEC313CE13D8F9F53A8E39905D
:100B5400011AE0F8A3E0F9A3E0FAA3E0FBE4FCFD4A
:100B6400EB253AFFEA3EFEED39FDEC38FC90011A24
:100B74001204720538C3E538648094905003020A65
:100B8400E190011AE0FCA3E0FDA3E0FEA3E0FF78FE
:080B94000412045E8E398F3A51
:010B9C002236
:10123400E4F54DF54E75FC20E5FC54F04401F5FC55
:1012440043FC10E5FC30E3FBAFFEEFADFDF54DEDE7
:05125400F54EAE4DFF58
:011259002272
:100B9D0090011A12047E00000000E4F54AE4F549C4
:100BAD00121234E54925E02408F8A60608A6070523
:100BBD0049C3E5496480949440E67B007A00790846
:100BCD007D147C001209D7E5152517FFE5143516A0
:100BDD00FEE5192FFFE5183EFEE51B2FFFE51A3E3A
:100BED00FEE51D2FFFE51C3EFEE51F2FFFE51E3E1A
:100BFD00FEE5212FFFE5203EFEE5232FFFE5223EFA
:100C0D00FEEF7803CEC313CE13D8F9F54C8E4B906F
:100C1D00011AE0F8A3E0F9A3E0FAA3E0FBE4FCFD80
:100C2D00EB254CFFEA3EFEED39FDEC38FC90011A48
:100C3D00120472054AC3E54A648094905003020B76
:100C4D00AA90011AE0FCA3E0FDA3E0FEA3E0FF786B
:080C5D000412045E8E4B8F4C63
:010C6500226C
:1012C900E4F54FF55075FC2053FCF043FC10E5FCA8
:1012D90030E3FBAFFEEFADFDF54FEDF550AE4FFF3F
:0112E90022E2
:10139100AD07AC06EC540FF5EEEDF5ED43EE102282
:100EBD00E4F562F561756080755F3F7FD07E071246
:100ECD001391E4F548120B9DE54825E02434F8A66E
:100EDD000608A6077F327E0012120C0548E548C3AE
:100EED00940A40E17B007A0079347D0A7C00120976
:100EFD00D7E53B253DFFE53A353CFEE53F2FFFE5C8
:100F0D003E3EFEE5412FFFE5403EFEEF7802CEC3AB
:100F1D0013CE13D8F9F5338E32C374D09533F564EF
:060F2D0074079532F56324
:010F3300229B
:0809D7009001A2ECF0A3EDF089
:1009DF00E4F555F553F5549001A3E024FFFF900182
:1009EF00A2E034FFFEC3E5549FE5539E4003020A85
:1009FF00D3E4F555F551F552C39001A3E09554FF9B
:100A0F009001A2E09553CF24FFCF34FFFEC3E552F0
:100A1F009FE5519E4003020AC1E5522401FFE435D0
:100A2F0051FEEF25E0FFEE338F82F5831203D5FDE4
:100A3F00ACF0E55225E0FFE551338F82F5831203C9
:100A4F00D5D39DE5F09C405CE5522401FFE4355180
:100A5F00FEEF25E0FFEE338F82F5831203D5F550BD
:100A6F0085F04FE55225E0FFE551338F82F5831274
:100A7F0003D5FDE5522401FFE43551FEEF25E0FFDC
:100A8F00EE338F82F583E5F08DF012040DE55225DC
:100A9F00E0FFE551338F82F583E54F8550F0120467
:100AAF000D7555010552E5526003020A0705510203
:100ABF000A07E555600E0554E55460030209E60583
:040ACF00530209E6DF
:010AD3002200
:10136B0075FB8275E910E4F5EB75F91175E87D7580
:03137B00801022BD
:0413C000E4F5A62288
:0613B600439A01D2AF22B0
:0413C40075A70C22DB
:0313C8008FB122C0
:0413AC008F828E831B
:0513B000E493F554FF79
:0113B5002215
:04119100AD07AC06F4
:10119500E4F54F1213AC8F50ED2401FFE43EFE122F
:1011A50013AC8F51E550FE7C00E42551F553EC3E20
:0511B500F552FEAF53EE
:0111BA002212
:04132200AB07AA0665
:10132600E4F541EAF594EBF593AF058F95759601D3
:041336000541154117
:01133A002290
:0A12EA00AD07AC06EC54034F701280
:1012F400F541ECF594EDF593E4F595759602054109
:02130400154191
:0113060022C4
:100D1E0000000000000000000000000000000000C5
:100D2E0000000000000000000000000000000000B5
:100D3E0000000000000000000000000000000000A5
:100D4E000000000000000000000000000000000095
:100D5E000000000000000000000000000000000085
:100D6E000000000000000000000000000000000075
:100D7E000000000000000000000000000000000065
:100D8E000000000000000000000000000000000055
:100D9E000000000043533135323158562E30302E7C
:020DAE003033E0
:101307004A0000FFFFFFFFFFFFFFFFFFFF4A000A42
:0A131700FFFFFFFFFFFFFFFFFFFFD6
:10086100E4F532E55D640170030209D61213BCE5BB
:100871003225E02433F8A60608A6070532E532C37F
:10088100940A40DF7B007A0079337D0A7C001209EB
:10089100D7E53C253EFFE53B353DFEE5402FFFE535
:1008A1003F3EFEE5422FFFE5413EFEEF7802CEC31B
:1008B10013CE13D8F9F5488E47900000E0FEA3E06F
:1008C100FFF47002EEF46037E5482FFFE5473EFE86
:1008D100900003E02FFF900002E03EFE900005E053
:1008E1002FFF900004E03EFE900007E02FFF9000F4
:1008F10006E03EFE7C007D051203808E478F48C3D3
:10090100E54894B8E547940B5041E54894DCE54748
:1009110094054037900002E0FFA3E0900000CFF083
:10092100A3EFF0900004E0FFA3E0900002CFF0A35A
:10093100EFF0900006E0FFA3E0900004CFF0A3EFFA
:10094100F0A3E547F0A3E548F0800874FF900000AC
:10095100F0A3F0C3E5489480E547940C5041E54885
:100961009400E54794044037E54825E0FFE5473327
:10097100FEE42FFFEE3418FE1211918E498F4AAC1E
:1009810049AD4AEC120191AB62AA61A960A85F125C
:1009910000861201CAE5642FF54CE5633EF54BC3B1
:1009A100E54C9402E54B648094805008754B0075CA
:1009B1004C028013D3E54C94FFE54B6480948F4047
:1009C10006754B0F754CFFAF4CAE4B1213917FF474
:0509D1007E0112120C72
:0109D60022FE
:1005CF00781A7C017D017BFF7A0D791E7E007F8476
:1005DF0012031BE4F532E55D64017003020860123B
:1005EF0013BCE53225E02433F8A60608A60705322A
:1005FF00E532C3940840DF7B007A0079337D087CB5
:10060F00001209D7E538253AFFE5373539FEE53CC5
:10061F002FFFE53B3EFEE53E2FFFE53D3EFEEF782B
:10062F0002CEC313CE13D8F9F5488E47D394FFE506
:10063F00476480948F400675470F7548FFD3E54890
:10064F009400E547648094805005E4F547F548E44D
:10065F00F532E55D640170030208601212C9E532DC
:10066F0025E0241AF582E43401F583EEF0A3EFF0D0
:10067F000532E532C3942040D97B017A01791A7D86
:10068F00207C001209D790019E12047E000000000A
:10069F0075321090019EE0F8A3E0F9A3E0FAA3E011
:1006AF00FBE53225E0241AF582E43401F583E0FE00
:1006BF00A3E0FFE4FCFDEB2FFFEA3EFEED39FDEC7E
:1006CF0038FC90019E1204720532E532B414C490C6
:1006DF00019EE0FCA3E0FDA3E0FEA3E0FFE47B04AA
:1006EF00FAF9F81210A490019E120472E47FFF7EB3
:1006FF000FFDFC90019EE0F8A3E0F9A3E0FAA3E060
:10070F00FBD3120448400A90019E12047E00000F92
:10071F00FF90019EA3A3E0FEA3E02400F54EEE346C
:10072F00F8F54D90000AE0FEA3E0FFF47002EEF43E
:10073F006037E5482FFFE5473EFE90000DE02FFFA5
:10074F0090000CE03EFE90000FE02FFF90000EE0B7
:10075F003EFE900011E02FFF900010E03EFE7C0067
:10076F007D051203808E478F48C3E54894B8E5474F
:10077F006480948B5043E54894DCE547648094850E
:10078F00403790000CE0FFA3E090000ACFF0A3EFFA
:10079F00F090000EE0FFA3E090000CCFF0A3EFF07D
:1007AF00900010E0FFA3E090000ECFF0A3EFF0A3B6
:1007BF00E547F0A3E548F0800874FF90000AF0A326
:1007CF00F0C3E5489480E5476480948C5023E54856
:1007DF009400E547648094844017E54825E0FFE5E1
:1007EF004733FEE42FFFEE3418FE1211918E498F1E
:1007FF004AE54A254EF54CE549354DF54BFCAD4CD8
:10080F00120191AB62AA61A960A85F120086120162
:10081F00CAE5642FF54CE5633EF54BC3E54C9402F6
:10082F00E54B648094805008754B00754C02801323
:10083F00D3E54C94FFE54B6480948F4006754B0FC6
:10084F00754CFFAF4CAE4B1213917FF47E01121219
:01085F000C8C
:010860002275
:1011E400756501120AD48E338F34120B9D8E358FA0
:1011F40036E533FF900019EFF0A3E534F0E535FF51
:07120400A3EFF0A3E536F0B3
:01120B0022C0
:1010E800900017E0F533E4F535F53674192536F533
:1010F80082E43400F583E0F534E533FEE42536CDAB
:10110800E5353420CD2400FFED3EFEAD3412132228
:0F1118000536E53670020535C3E535940140CC48
:0111270022A5
:10100A00900017E0F536E4F533F534E536FEE424CE
:10101A0000FFEE3420FEE5342FFFE5333EFE1213C7
:10102A00AC8F3574192534F582E43400F583E5353F
:10103A00F00534E53470020533C3E533940140CB3F
:10104A00E4900016F07B017A0079147D067C010297
:02105A00105C28
:10137E0090001A74FFF07F007E401213AC90001B99
:03138E00EFF0225B
:10125A00E4F533E42533FFE43448FE1213AC741981
:10126A002533F582E43400F583EFF00533E533C323
:04127A00940740DFB6
:01127E00224D
:10127F00E4F533E42533FFE43444FE1213AC741960
:10128F002533F582E43400F583EFF00533E533C3FE
:04129F00940C40DF8C
:0112A3002228
:101165007F007E441212EAE4F533E42533FFE434CC
:1011750044FE74192533F582E43400F583E0FD124D
:0B11850013220533E533C3940C40DF58
:01119000223C
:1012A400E4F533E42533FFE4344CFE1213AC741933
:1012B4002533F582E43400F583EFF00533E533C3D9
:0412C400940740DF6C
:0112C8002203
:100C6600E55D64016003020D0D900015E01204AF0E
:100C76000CB6060CC0070CBB080CC5100CA7110C53
:100C8600AC120C98130C9D140CA2150CB119000093
:100C96000CCD1211E4802B1210E8802612100A8067
:100CA60029121128801C120003801712137E80124D
:100CB60012125A800D1212A4800812127F8003129B
:100CC60011657532018003753202E532B40113E411
:100CD600F532900016F07B017A0079147D067C01CE
:100CE6008022E532B40220E4F532900014747EF0DE
:100CF60090011974AAF09000167401F0FB7A00793D
:100D0600147D06FC12105CE4F55D7E017F06FD7B1A
:080D1600017A0079140204D5F2
:10112800C2AFE4F533E53325E025E0FEE42400FF13
:10113800EE3420FE1212EA7F017E0012120C0533F3
:10114800E533C3940840DE7F007E401212EA7F0137
:0C1158007E0012120CD2AFE4900016F0E2
:011164002268
:1000030090001BE0701FFF7E401212EA7F0A7E0001
:1000130012120CE4FDFF7E40121322E4900016F04E
:10002300F55BF55C2290001BE0B4FF227F007E406D
:100033001212EA7F0A7E0012120C7DFF7F007E40BF
:10004300121322E4900016F0F55B755CFF2290001A
:100053001BE0B401227F007E401212EA7F0A7E0079
:1000630012120C7D017F007E40121322E4900016D1
:0E007300F0F55B755C01229000167401F0221E
:100FA50078327C007D007BFF7A0D79A27E007F0779
:100FB50012031B78397C007D007BFF7A0D79A97EB1
:100FC500007F0712031B7F007E481212EA7F007E16
:100FD5004C1212EAE4F540E42540FFE43448FE747F
:100FE500322540F8E6FD121322E42540FFE4344C97
:100FF500FE74392540F8E6FD1213220540E540C38D
:04100500940740D339
:0110090022C4
:03008300020F3435
:100F3400C0E0C083C082C0D075D000C001C002C070
:100F440003E59B30E04C539BFEC3E5589406E557FC
:100F54009401503E7B0174142558F974003557FAF6
:100F6400E59C12036E900014E0B47E20E558B405AD
:100F740011E557B4010C900119E0B4AA15755D018F
:100F8400800A0558E558700A05578006755700759C
:100F94005800D003D002D001D0D0D082D083D0E08A
:010FA400321A
:100E3C001213C07FE87E0312120C1213C412136B30
:100E4C007F021213C81213537F007E401213AC752D
:100E5C005B008F5C120FA51213B6120EBD1213BCE1
:100E6C008E308F31E53125E0FFE53033FEE42FFF86
:100E7C00EE3458FE1213AC7559008F5AE4F557F541
:100E8C0058F55DF565753004F5317FD07E0712138A
:100E9C0091E55DB40103120C66E55C455B700512CF
:100EAC00086180EDE55C6401455B70E51205CF805F
:010EBC00E055
:10133B00E4F551E551C39F500EE4F5520552E552C9
:07134B00B432F9055180ECFA
:011352002278
:04120C00AD07AC0678
:10121000E4F54FF550C3E5509DE54F9C5015E55D55
:101220006401600F7F0A12133B0550E55070E6051C
:031230004F80E20A
:011233002298
:10105C0090011AEBF0A3EAF0A3E9F0A3ECF0A3EDF6
:01106C00F093
:10106D00E4F537F538D390011EE0953890011DE079
:10107D009537402290011AE0FBA3E0FAA3E0F98531
:10108D003882853783120341FF1213A10538E538E5
:06109D0070D3053780CF7F
:0110A300222A
:0B13A1008F9CE59B30E1FB539BFD227D
:101353007532037533CA759B90E532F5BBE533F5FA
:081363009D7FC87E0002120C00
:10008600EC4D6011E8497017ED33EC3304600DE474
:10009600FCFFFEFD22E933E8330470F80202361253
:1000A600020158046009E4CC248150062850090254
:1000B600024028400302023DC0E0EB4A7044B9808A
:1000C60006D0E0FB02022CEF4E701CBD8008EBFF51
:1000D600EAFEE9FD80EBE98DF0A4FEE5F002016F92
:1000E600E9CDF9EAFEEBFFEF89F0A4FCE5F0CE8955
:1000F600F0A42EFFE435F0CD89F0A42DFEE435F012
:100106008067EF4E7005BD80D780C3EF8BF0A4AC3F
:10011600F0EE8BF0A42CFCE435F0F8EF8AF0A42C7A
:10012600E5F038FCE433CB8DF0A42CFCE5F03BF88D
:10013600EE8AF0A42CFCE5F038F8E433CF89F0A47D
:100146002CFCE5F038CF3400CE89F0A42FFFE5F083
:100156003EFEE433C98DF0A42EFEE5F039CD8AF0DB
:10016600A42FFFE5F03EFEE43DFD33D0E0FB500753
:100176000BBB000F020240EC2CFCEF33FFEE33FE0C
:06018600ED33FD0202183A
:10018C0075F020800E75F010800575F0087D007EEE
:10019C00007F003392D530D50312043AEC33401073
:1001AC00EF33FFEE33FEED33FDEC33FCD5F0ED22F7
:0E01BC00E5F0247EA2D513CC92E7CDCEFF2233
:1001CA00EDD2E7CD33EC3392D524814006E4FFFE2D
:1001DA00FDFC22FCE4CFCECDCC24E0501174FF808C
:1001EA00EDC3CC13CCCD13CDCE13CECF13CF047029
:0701FA00F030D5DE02043AEB
:10020100E9D2E7C933E833F892D5EDD2E7CD33EC43
:0702110033FC5002B2D522BC
:10021800EC30E7100FBF000C0EBE00080DBD000447
:100228000BEB6014A2D5EB13FCED92E7FD2274FFF3
:10023800FCFDFEFF22E480F8A2D574FF13FC7D804C
:03024800E480EF60
:100DBC00020E3CE493A3F8E493A34003F68001F203
:100DCC0008DFF48029E493A3F85407240CC8C33338
:100DDC00C4540F4420C8834004F456800146F6DF07
:100DEC00E4800B0102040810204080901307E47E7D
:100DFC00019360BCA3FF543F30E509541FFEE493FC
:100E0C00A360010ECF54C025E060A840B8E493A3C2
:100E1C00FAE493A3F8E493A3C8C582C8CAC583CAED
:100E2C00F0A3C8C582C8CAC583CADFE9DEE780BEA5
:0113210000CB
:10024B00E709F608DFFA8046E709F208DFFA803E95
:10025B0088828C83E709F0A3DFFA8032E309F60882
:10026B00DFFA8078E309F208DFFA807088828C83EA
:10027B00E309F0A3DFFA806489828A83E0A3F6089E
:10028B00DFFA805889828A83E0A3F208DFFA804C78
:10029B0080D280FA80C680D4806980F2803380104F
:1002AB0080A680EA809A80A880DA80E280CA8033B8
:1002BB0089828A83ECFAE493A3C8C582C8CCC58330
:1002CB00CCF0A3C8C582C8CCC583CCDFE9DEE78000
:1002DB000D89828A83E493A3F608DFF9ECFAA9F07F
:1002EB00EDFB2289828A83ECFAE0A3C8C582C8CCD5
:1002FB00C583CCF0A3C8C582C8CCC583CCDFEADEEE
:10030B00E880DB89828A83E493A3F208DFF980CC4F
:10031B0088F0EF60010E4E60C388F0ED2402B40448
:10032B000050B9F582EB2402B4040050AF232345EF
:06033B00822390029B7377
:10034100BB010CE58229F582E5833AF583E0225071
:1003510006E92582F8E622BBFE06E92582F8E222BB
:0D036100E58229F582E5833AF583E49322D5
:10036E00BB010689828A83F0225002F722BBFE016E
:02037E00F32268
:10038000BC000BBE0029EF8DF084FFADF022E4CC61
:10039000F875F008EF2FFFEE33FEEC33FCEE9DEC2A
:1003A000984005FCEE9DFE0FD5F0E9E4CEFD22ED70
:1003B000F8F5F0EE8420D21CFEADF075F008EF2FBA
:1003C000FFED33FD4007985006D5F0F222C398FDAB
:0503D0000FD5F0EA2248
:1003D500BB0110E58229F582E5833AF583E0F5F066
:1003E500A3E0225009E92582F886F008E622BBFE43
:1003F5000AE92582F8E2F5F008E222E5832AF58389
:08040500E993F5F0A3E993224D
:10040D00F8BB0111E58229F582E5833AF583E8F021
:10041D00E5F0A3F0225009E92582C8F608A6F022DE
:0D042D00BBFE09E92582C8F2E5F008F222C5
:1010A400C2D5E830E70FB2D5E4C39BFBE49AFAE477
:1010B40099F9E498F8EC30E717B2D51210DA120572
:1010C4003DE4C39BFBE49AFAE499F9E498F88003BD
:1010D40012053D30D50DE4C39FFFE49EFEE49DFD63
:0410E400E49CFC226A
:0E043A00C3E49FFFE49EFEE49DFDE49CFC22D3
:10044800EB9FF5F0EA9E42F0E99D42F0EC6480C82B
:0604580064809845F022CB
:10045E00E86010ECA2E713FCED13FDEE13FEEF13B4
:04046E00FFD8F022A1
:0C047200ECF0A3EDF0A3EEF0A3EFF022FD
:10047E00A8828583F0D083D082120495120495123F
:10048E000495120495E473E493A3C583C5F0C58364
:10049E00C8C582C8F0A3C583C5F0C583C8C582C8C8
:0104AE00222B
:1004AF00D083D082F8E4937012740193700DA3A3DC
:1004BF0093F8740193F5828883E4737402936860F0
:0604CF00EFA3A3A380DFF0
:1004D500EF4E6012EF60010EEDBB010B89828A833E
:1004E500F0A3DFFCDEFA2289F05007F709DFFCA94B
:0C04F500F022BBFEFCF309DFFCA9F022A2
:1005010075F008758200EF2FFFEE33FECD33CDCCB1
:1005110033CCC58233C5829BED9AEC99E582984034
:100521000CF582EE9BFEED9AFDEC99FC0FD5F0D611
:10053100E4CEFBE4CDFAE4CCF9A88222B800C1B93B
:100541000059BA002DEC8BF084CFCECDFCE5F0CB79
:10055100F97818EF2FFFEE33FEED33FDEC33FCEBB2
:1005610033FB10D703994004EB99FB0FD8E5E4F96D
:10057100FA227818EF2FFFEE33FEED33FDEC33FC5A
:10058100C933C910D7059BE99A4007EC9BFCE99A4E
:10059100F90FD8E0E4C9FAE4CCFB2275F010EF2F93
:1005A100FFEE33FEED33FDCC33CCC833C810D70793
:1005B1009BEC9AE899400AED9BFDEC9AFCE899F8CE
:0E05C1000FD5F0DAE4CDFBE4CCFAE4C8F92261
:00000001FF
